{
  "_format": "hh-sol-artifact-1",
  "contractName": "WavePortal",
  "sourceName": "contracts/WavePortal.sol",
  "abi": [
    {
      "inputs": [],
      "stateMutability": "nonpayable",
      "type": "constructor"
    },
    {
      "inputs": [],
      "name": "getTotalWaves",
      "outputs": [
        {
          "internalType": "uint256",
          "name": "",
          "type": "uint256"
        }
      ],
      "stateMutability": "view",
      "type": "function"
    },
    {
      "inputs": [],
      "name": "wave",
      "outputs": [],
      "stateMutability": "nonpayable",
      "type": "function"
    }
  ],
  "bytecode": "0x608060405234801561001057600080fd5b5061003c6040518060600160405280602581526020016108556025913961004160201b61023d1760201c565b6101c4565b6100dd816040516024016100559190610142565b6040516020818303038152906040527f41304fac000000000000000000000000000000000000000000000000000000007bffffffffffffffffffffffffffffffffffffffffffffffffffffffff19166020820180517bffffffffffffffffffffffffffffffffffffffffffffffffffffffff83818316178352505050506100e060201b60201c565b50565b60008151905060006a636f6e736f6c652e6c6f679050602083016000808483855afa5050505050565b600061011482610164565b61011e818561016f565b935061012e818560208601610180565b610137816101b3565b840191505092915050565b6000602082019050818103600083015261015c8184610109565b905092915050565b600081519050919050565b600082825260208201905092915050565b60005b8381101561019e578082015181840152602081019050610183565b838111156101ad576000848401525b50505050565b6000601f19601f8301169050919050565b610682806101d36000396000f3fe608060405234801561001057600080fd5b50600436106100365760003560e01c80636fe15b441461003b5780639a2cdc0814610045575b600080fd5b610043610063565b005b61004d6101f2565b60405161005a9190610510565b60405180910390f35b60016000808282546100759190610547565b92505081905550600060405180604001604052803373ffffffffffffffffffffffffffffffffffffffff168152602001428152509050600181908060018154018082558091505060019003906000526020600020906002020160009091909190915060008201518160000160006101000a81548173ffffffffffffffffffffffffffffffffffffffff021916908373ffffffffffffffffffffffffffffffffffffffff1602179055506020820151816001015550506101696040518060400160405280600d81526020017f2573206861732077617665642100000000000000000000000000000000000000815250336102d6565b6101ac6040518060400160405280600e81526020017f776176652e77617665723a20257300000000000000000000000000000000000081525082600001516102d6565b6101ef6040518060400160405280600d81526020017f776176652e646174653a202564000000000000000000000000000000000000008152508260200151610372565b50565b60006102356040518060400160405280601781526020017f5765206861766520256420746f74616c20776176657321000000000000000000815250600054610372565b600054905090565b6102d381604051602401610251919061048e565b6040516020818303038152906040527f41304fac000000000000000000000000000000000000000000000000000000007bffffffffffffffffffffffffffffffffffffffffffffffffffffffff19166020820180517bffffffffffffffffffffffffffffffffffffffffffffffffffffffff838183161783525050505061040e565b50565b61036e82826040516024016102ec9291906104b0565b6040516020818303038152906040527f319af333000000000000000000000000000000000000000000000000000000007bffffffffffffffffffffffffffffffffffffffffffffffffffffffff19166020820180517bffffffffffffffffffffffffffffffffffffffffffffffffffffffff838183161783525050505061040e565b5050565b61040a82826040516024016103889291906104e0565b6040516020818303038152906040527f9710a9d0000000000000000000000000000000000000000000000000000000007bffffffffffffffffffffffffffffffffffffffffffffffffffffffff19166020820180517bffffffffffffffffffffffffffffffffffffffffffffffffffffffff838183161783525050505061040e565b5050565b60008151905060006a636f6e736f6c652e6c6f679050602083016000808483855afa5050505050565b6104408161059d565b82525050565b60006104518261052b565b61045b8185610536565b935061046b8185602086016105d9565b6104748161063b565b840191505092915050565b610488816105cf565b82525050565b600060208201905081810360008301526104a88184610446565b905092915050565b600060408201905081810360008301526104ca8185610446565b90506104d96020830184610437565b9392505050565b600060408201905081810360008301526104fa8185610446565b9050610509602083018461047f565b9392505050565b6000602082019050610525600083018461047f565b92915050565b600081519050919050565b600082825260208201905092915050565b6000610552826105cf565b915061055d836105cf565b9250827fffffffffffffffffffffffffffffffffffffffffffffffffffffffffffffffff038211156105925761059161060c565b5b828201905092915050565b60006105a8826105af565b9050919050565b600073ffffffffffffffffffffffffffffffffffffffff82169050919050565b6000819050919050565b60005b838110156105f75780820151818401526020810190506105dc565b83811115610606576000848401525b50505050565b7f4e487b7100000000000000000000000000000000000000000000000000000000600052601160045260246000fd5b6000601f19601f830116905091905056fea26469706673582212206c18dcc82da56d8766032a38e90fa2ee9a0b63dd771f9b48411df4fdda53957964736f6c63430008040033596f20796f2c204920616d206120636f6e747261637420616e64204920616d20736d617274",
  "linkReferences": {},
  "deployedLinkReferences": {}
}